:03000000020C49A6
:0C0C4900787FE4F6D8FD758120020C9045
:100AAB0020554152542D0020544956412D002041D0
:100ABB00543332382D002053544D33322D004D69B1
:100ACB0063726F2D636F6E74726F6C6C65727320D3
:100ADB00617661696C61626C653A000D0A00507257
:100AEB00657373204920666F722049737375652097
:100AFB00616E64205220666F722052657475726E3F
:100B0B000D0A00456E746572206D6963726F2D63FB
:100B1B006F6E74726F6C6C657220746F20626520DF
:100B2B00626F72726F7765643A0D0A00456E746579
:100B3B0072205175616E746974793A0D0A005265B1
:100B4B0071756573746564206D6963726F2D636F66
:100B5B006E74726F6C6C657220616C6C6F63617418
:100B6B006564210D0A0052657175657374656420A7
:100B7B006D6963726F2D636F6E74726F6C6C6572DF
:100B8B00206E6F7420617661696C61626C652E2ECC
:100B9B002E0D0A00456E746572206D6963726F2DA0
:100BAB00636F6E74726F6C6C657220746F2062650C
:100BBB002072657475726E65643A0D0A00596F7513
:100BCB002063616EE28099742072657475726E2079
:100BDB007768617420796F7520646F6EE280997409
:100BEB0020686176652E2E2E0D0A00526574757283
:100BFB006E6564206D6963726F2D636F6E74726FB7
:100C0B006C6C6572207265636569766564210D0A8B
:100C1B000052657475726E6564206D6963726F2D19
:100C2B00636F6E74726F6C6C6572206F7574206F6E
:0E0C3B006620626F756E64732E2E2E0D0A00F9
:100D0000C101C100041408060404011800011B00FD
:100D1000011C000C08FF0AABFF0AB2FF0AB9FF0A68
:050D2000C102190000F2
:100D3F00758920758DF3D2AFD2AC759850D28E22B3
:080D69008F993001FDC2012247
:060CD5007BFF7A0B79376A
:100CDB008B1D8A1E891FAB1DAA1EA91F120D266014
:100CEB0013051FE51F7002051E14F9120D26FF12C6
:050CFB000D6980E222FA
:090D5F00E4FF3000FDC200AF9971
:010D68002268
:03002300020D4F7C
:100D4F00309905C299D20132309804C298D200323C
:10080000120D3F7BFF7A0A79C9120CDBE4F519F56A
:100810001AE51A75F003A42408F8860308E6FA0816
:10082000E6F9120CDB7414251AF8E62430F518FFEB
:10083000120D69051AE51A70020519C39404E51929
:100840006480948040CB7BFF7A0A79E6120CDB7BD4
:10085000FF7A0A79E9120CDB120D5F8F18E518B4E4
:1008600049047F0180027F00E518B469047E01809D
:10087000027E00EE4F700302092A7BFF7A0B790E8D
:10088000120CDB120D5F8F1B120CD5120D5FEF24C3
:10089000D0F51CE51B6431701AAD14ED3395E0FC06
:1008A000D3ED951C7480F86C984076E514951CF592
:1008B000148065E51B6432701CAD15ED3395E0FCCA
:1008C000D3ED951C7480F86C984008E515951CF5DF
:1008D000158045804CE51B6433701CAD16ED3395D7
:1008E000E0FCD3ED951C7480F86C984008E51695F3
:1008F0001CF5168023802AE51B643460030208037C
:10090000AD17ED3395E0FCD3ED951C7480F86C9831
:10091000400FE517951CF5177BFF7A0B7949020A02
:10092000997BFF7A0B7971020A99E518B452047F1A
:100930000180027F00E518B472047E0180027E000F
:10094000EE4F70030208037BFF7A0B799F120CDBDA
:10095000120D5F8F1BE51B6431704EC3E51464807C
:10096000948840097BFF7A0B79C8020A99120CD54A
:10097000120D5FEF24D0F51CAF14EF3395E0FEE5C8
:100980001C2FFFE43EFED3EF9408EE648094805069
:100990000FE51C2514F5147BFF7A0B79F6020A99F2
:1009A0007BFF7A0C791C020A99E51B6432704EC3F6
:1009B000E5156480948640097BFF7A0B79C8020AAA
:1009C00099120CD5120D5FEF24D0F51CAF15EF3343
:1009D00095E0FEE51C2FFFE43EFED3EF9406EE64A7
:1009E000809480500FE51C2515F5157BFF7A0B7957
:1009F000F6020A997BFF7A0C791C020A99E51B64BE
:100A000033704CC3E5166480948440097BFF7A0BF5
:100A100079C8020A99120CD5120D5FEF24D0F51C8B
:100A2000AF16EF3395E0FEE51C2FFFE43EFED3EF5B
:100A30009404EE64809480500EE51C2516F5167B18
:100A4000FF7A0B79F680527BFF7A0C791C804AE59D
:100A50001B64346003020803C3E517648094844078
:100A6000087BFF7A0B79C88030120CD5120D5FEF2E
:100A700024D0F51CAF17EF3395E0FEE51C2FFFE403
:100A80003EFED3EF9404EE648094805012E51C2562
:100A900017F5177BFF7A0B79F6120CDB0208037B44
:0B0AA000FF7A0C791C120CDB0208032B
:100C5500020800E493A3F8E493A34003F68001F2AD
:100C650008DFF48029E493A3F85407240CC8C333A0
:100C7500C4540F4420C8834004F456800146F6DF6F
:100C8500E4800B0102040810204080900D00E47EF2
:100C9500019360BCA3FF543F30E509541FFEE49364
:100CA500A360010ECF54C025E060A840B8E493A32B
:100CB500FAE493A3F8E493A3C8C582C8CAC583CA56
:100CC500F0A3C8C582C8CAC583CADFE9DEE780BE0E
:010D250000CD
:100D2600BB010689828A83E0225002E722BBFE02CB
:090D3600E32289828A83E49322FE
:00000001FF
